{
  "transactions": [
    {
      "hash": "0xff15178dd330240d45cf39075ecfd0a67302dd736b4e3b7285ed45d3d984bbe2",
      "transactionType": "CALL",
      "contractName": "LinkToken",
      "contractAddress": "0x779877A7B0D9E8603169DdbD7836e478b4624789",
      "function": "transferAndCall(address,uint256,bytes):(bool)",
      "arguments": [
        "0x8103B0A8A00be2DDC778e6e7eaa21791Cd364625",
        "3000000000000000000 \u001b[2;49;39m[3e18]\u001b[0m",
        "0x0000000000000000000000000000000000000000000000000000000000000b35"
      ],
      "transaction": {
        "type": "0x02",
        "from": "0x9172bdc8973f91430ff81c49d05bd5416f4ab58a",
        "to": "0x779877a7b0d9e8603169ddbd7836e478b4624789",
        "gas": "0x13fbe",
        "value": "0x0",
        "data": "0x4000aea00000000000000000000000008103b0a8a00be2ddc778e6e7eaa21791cd36462500000000000000000000000000000000000000000000000029a2241af62c0000000000000000000000000000000000000000000000000000000000000000006000000000000000000000000000000000000000000000000000000000000000200000000000000000000000000000000000000000000000000000000000000b35",
        "nonce": "0x6",
        "accessList": []
      },
      "additionalContracts": [],
      "isFixedGasLimit": false
    }
  ],
  "receipts": [
    {
      "transactionHash": "0xff15178dd330240d45cf39075ecfd0a67302dd736b4e3b7285ed45d3d984bbe2",
      "transactionIndex": "0x2",
      "blockHash": "0x33805c1eb13f5358d93390e0d88ab8e379e04ce58a8bce49f7b69f50c294611f",
      "blockNumber": "0x3883c8",
      "from": "0x9172BDC8973f91430ff81C49D05bd5416F4AB58a",
      "to": "0x779877A7B0D9E8603169DdbD7836e478b4624789",
      "cumulativeGasUsed": "0x1a08a",
      "gasUsed": "0xe77e",
      "contractAddress": null,
      "logs": [
        {
          "address": "0x779877A7B0D9E8603169DdbD7836e478b4624789",
          "topics": [
            "0xddf252ad1be2c89b69c2b068fc378daa952ba7f163c4a11628f55a4df523b3ef",
            "0x0000000000000000000000009172bdc8973f91430ff81c49d05bd5416f4ab58a",
            "0x0000000000000000000000008103b0a8a00be2ddc778e6e7eaa21791cd364625"
          ],
          "data": "0x00000000000000000000000000000000000000000000000029a2241af62c0000",
          "blockHash": "0x33805c1eb13f5358d93390e0d88ab8e379e04ce58a8bce49f7b69f50c294611f",
          "blockNumber": "0x3883c8",
          "transactionHash": "0xff15178dd330240d45cf39075ecfd0a67302dd736b4e3b7285ed45d3d984bbe2",
          "transactionIndex": "0x2",
          "logIndex": "0x1",
          "removed": false
        },
        {
          "address": "0x779877A7B0D9E8603169DdbD7836e478b4624789",
          "topics": [
            "0xe19260aff97b920c7df27010903aeb9c8d2be5d310a2c67824cf3f15396e4c16",
            "0x0000000000000000000000009172bdc8973f91430ff81c49d05bd5416f4ab58a",
            "0x0000000000000000000000008103b0a8a00be2ddc778e6e7eaa21791cd364625"
          ],
          "data": "0x00000000000000000000000000000000000000000000000029a2241af62c0000000000000000000000000000000000000000000000000000000000000000004000000000000000000000000000000000000000000000000000000000000000200000000000000000000000000000000000000000000000000000000000000b35",
          "blockHash": "0x33805c1eb13f5358d93390e0d88ab8e379e04ce58a8bce49f7b69f50c294611f",
          "blockNumber": "0x3883c8",
          "transactionHash": "0xff15178dd330240d45cf39075ecfd0a67302dd736b4e3b7285ed45d3d984bbe2",
          "transactionIndex": "0x2",
          "logIndex": "0x2",
          "removed": false
        },
        {
          "address": "0x8103B0A8A00be2DDC778e6e7eaa21791Cd364625",
          "topics": [
            "0xd39ec07f4e209f627a4c427971473820dc129761ba28de8906bd56f57101d4f8",
            "0x0000000000000000000000000000000000000000000000000000000000000b35"
          ],
          "data": "0x0000000000000000000000000000000000000000000000004563918244f400000000000000000000000000000000000000000000000000006f05b59d3b200000",
          "blockHash": "0x33805c1eb13f5358d93390e0d88ab8e379e04ce58a8bce49f7b69f50c294611f",
          "blockNumber": "0x3883c8",
          "transactionHash": "0xff15178dd330240d45cf39075ecfd0a67302dd736b4e3b7285ed45d3d984bbe2",
          "transactionIndex": "0x2",
          "logIndex": "0x3",
          "removed": false
        }
      ],
      "status": "0x1",
      "logsBloom": "0x0000001400000000000000000000000000000000000000020000000002000000000000000000800000000000000000000000000000000000000000000000000000000000000000000000000800000000000200000000000000002000000000000000000000000000000000800000000000000000400000000000001000000000800000000c000020000000000000800010000020000000000000000000000000000000000002000000001000000000008000000000000000000400000000000000000002000000000000000000000000000000000000000100000000000000000000000000000000000000000000000000000000000000000000000000000000",
      "type": "0x2",
      "effectiveGasPrice": "0xb2d05e0c"
    }
  ],
  "libraries": [],
  "pending": [],
  "returns": {},
  "timestamp": 1686914414,
  "chain": 11155111,
  "multi": false,
  "commit": "4bd162e"
}