{
  "transactions": [
    {
      "hash": "0xff15178dd330240d45cf39075ecfd0a67302dd736b4e3b7285ed45d3d984bbe2",
      "transactionType": "CALL",
      "contractName": "LinkToken",
      "contractAddress": "0x779877A7B0D9E8603169DdbD7836e478b4624789",
      "function": "transferAndCall(address,uint256,bytes):(bool)",
      "arguments": [
        "0x8103B0A8A00be2DDC778e6e7eaa21791Cd364625",
        "3000000000000000000 \u001b[2;49;39m[3e18]\u001b[0m",
        "0x0000000000000000000000000000000000000000000000000000000000000b35"
      ],
      "transaction": {
        "type": "0x02",
        "from": "0x9172bdc8973f91430ff81c49d05bd5416f4ab58a",
        "to": "0x779877a7b0d9e8603169ddbd7836e478b4624789",
        "gas": "0x13fbe",
        "value": "0x0",
        "data": "0x4000aea00000000000000000000000008103b0a8a00be2ddc778e6e7eaa21791cd36462500000000000000000000000000000000000000000000000029a2241af62c0000000000000000000000000000000000000000000000000000000000000000006000000000000000000000000000000000000000000000000000000000000000200000000000000000000000000000000000000000000000000000000000000b35",
        "nonce": "0x6",
        "accessList": []
      },
      "additionalContracts": [],
      "isFixedGasLimit": false
    }
  ],
  "receipts": [],
  "libraries": [],
  "pending": [
    "0xff15178dd330240d45cf39075ecfd0a67302dd736b4e3b7285ed45d3d984bbe2"
  ],
  "returns": {},
  "timestamp": 1686914399,
  "chain": 11155111,
  "multi": false,
  "commit": "4bd162e"
}